:1000000004308A00C92C0000D02B4D1DA0127510A1
:100010000000D037F2316537F430EA323A10A53AB1
:10002000A51220002A3084008313000803191F281A
:10003000A530F700F70B1A280000800B18280800DD
:10004000310EF039F7000F30080577048800000002
:1000500008140000081008000808F700080E0F39FF
:10006000F800080083160810881008118312881001
:100070000F3083160805F038880083120815000039
:10008000081400002C207808B100081000000814A3
:100090002C207808B00008100F308316080588005F
:1000A0008312310EF700F030F70577083004F800BE
:1000B0007808B000B01B38282E1C88102E18881421
:1000C00000000811000008102F0EB0000F30B0051E
:1000D0003008B10020202F080F39B000B1002020D7
:1000E00008002830A6000C30A7000130A800063018
:1000F000A9000810881008110F3083160805880021
:100100000810881008110F308312AA001220013045
:10011000A5002508033C031C95280330B1002020CE
:100120000530AA001220A50A89280230B10020203B
:100130000530AA001220A5012508033C031CAC28A9
:1001400026302507840083130008AA00AE012A0880
:10015000AF003220A50A9C288A110A12D82C8E30B2
:10016000F7002608F8002508F900FA01F808031D31
:10017000C3287908F800F9010830F702F808031DD0
:10018000C328F701CB280310F81BCA28F90DF80D76
:10019000F703C328F813080080308318C606CB0184
:1001A000CC014208CA004608CA0641080319BC2906
:1001B000C900F70045080319C529C90203196129B7
:1001C000031C1F294608CF00CF174708CE00480858
:1001D000CD00CC010310CF0CCE0CCD0CCC0CC90B38
:1001E000E928CA1FF6284B14D9294B1049104B1681
:1001F000443084008313EE294B12CA1B0929491C81
:100200001429CF0CCE0CCD0CCC0CF70A0319D42931
:100210001429CF1B17290310CC0DCD0DCE0DCF0DFA
:10022000F7030319D42909294B1781294B134208D5
:10023000CA00CA1F1D29CF17CD29CF13CD294508C4
:10024000C900F7004108C9024208CF00CF17430890
:10025000CE004408CD00CC010310CF0CCE0CCD0C49
:10026000CC0CC90B2B29CA1F3829CB14D929CB1088
:100270004910CB16483084008313EE29CB12CA1BD9
:100280004B29491C5629CF0CCE0CCD0CCC0CF70AAF
:100290000319D4295629CF1B59290310CC0DCD0D94
:1002A000CE0DCF0DF7030319D4294B29CB17812984
:1002B000CB134608CA00CA1F5F29CF17CD29CF1319
:1002C000CD294608CF00CF174708CE004808CD00FB
:1002D000CA1F6E29CF134B15D9294B11CC014910D8
:1002E000443084008313EE29CA1B97294208CA00B0
:1002F000491C8129CF0CCE0CCD0CCC0CF70A03196C
:10030000D429CC1F9229CD0A031D9229CE0A031DA0
:100310009229CF0A031D9229CF0CCE0CCD0CF70ADF
:100320000319D4294B1B1629CB1B5829B629803019
:10033000CF06CF1F9F29D9294608CA00AC294208F9
:10034000CA00CF08031DAC29CE08031DAC29CD0877
:10035000031DAC29F701CD29CF1BB6290310CC0D05
:10036000CD0DCE0DCF0DF70BAC29D429CA1FBA295C
:10037000CF17CD29CF13CD294508F7004608CF0068
:100380004708CE004808CD00CD294108F7004208B3
:10039000CF004308CE004408CD004F08F8004E08B7
:1003A000F9004D08FA000C2AF701F801F901FA01E9
:1003B0000C2ACC01CD09CE09CF09CC09CC0A031DEA
:1003C000E729CD0A031DE729CE0A0319CF0A4B18E6
:1003D000F528CB1837294B196D299C290008CD0722
:1003E000031CF829CE0A031DF829CF0A0319491462
:1003F00084030008CE07031C002ACF0A03194914FE
:1004000084030008801F803ACF07031849144B1A51
:10041000FC28CB1A3E297429080083142C08C40038
:100420002B08C3002A08C2002908C1003008C800F0
:100430002F08C7002E08C6002D08C500CC207A085A
:10044000C0007908BF007808BE007708BD0083149B
:100450003C08C4003B08C3003A08C2003908C10088
:100460003808C8003708C7003608C6003508C50078
:10047000CC204008C4003F08C3003E08C2003D082D
:10048000C1007A08C8007908C7007808C600770854
:10049000C50041080319B92AC90045080319B92A3A
:1004A000C90703185A2A7F30C902031CB92A031945
:1004B000B92A5E2A8130C9070318B92A4908F7000A
:1004C000F801F901FA014208CD00CD174308CC002C
:1004D0004408CB001830C900CA014B1C872A4808C1
:1004E000FA07031C792AF90A031D792AF80A031965
:1004F000CA174708F907031C802AF80A0319CA1704
:100500004608C300C3174308F8070318CA17CA0DE3
:10051000F80CF90CFA0CCD0CCC0CCB0C0310C90B5D
:100520006C2A0130F7070318B92AF81B9E2ACD0D53
:10053000FA0DF90DF80DF7030319B92ACD1FAF2AEB
:10054000FA0A031DAF2AF90A031DAF2AF80A031D90
:10055000AF2AF80CF90CFA0CF70A0319B92A420869
:10056000CA004608CA06CA1FB72AF817BD2AF813D8
:10057000BD2AF701F801F901FA017A08C0007908EB
:10058000BF007808BE007708BD0083143408C4009B
:100590003308C3003208C2003108C1003008C80067
:1005A0002F08C7002E08C6002D08C500CC20400823
:1005B000C4003F08C3003E08C2003D08C1007A08DD
:1005C000C8007908C7007808C6007708C500410848
:1005D0000319AC2BCD0045080319AC2BCD02031C2D
:1005E000F62A7F30CD070318AC2BFC2A8130CD02D0
:1005F000031CAC2B0319AC2B4D08F700F801F901D3
:10060000FA01CC014208CB00CB174308CA004408CA
:10061000C9001930CD004808C90203181F2B01304A
:10062000CA0203181F2BCB0203181F2BCC0203187E
:100630001F2BCC0ACB0ACA0A4808C907512B470806
:10064000CA0203183A2B0130CB0203183A2BCC0212
:1006500003183A2BCC0ACB0A4708CA074808C9072F
:10066000031C512BCA0A031D512BCB0A031D512B0E
:10067000CC0A512B46088038CB020318502B01308E
:10068000CC020318502BCC0A46088038CB07470809
:10069000CA07031C2E2BCB0A031D2E2BCC0A2E2B94
:1006A0007A14CD0B542B5F2B0310C90DCA0DCB0D43
:1006B000CC0D0310FA0DF90DF80DCE0D0B2B4E1CC1
:1006C000672B0310F80CF90CFA0CCE0C6A2BF7030D
:1006D0000319AC2BCE1B932B0310C90DCA0DCB0DE8
:1006E000CC0D4808C90203187F2B0130CA02031839
:1006F0007F2BCB0203187F2BCC02031CA22B4708B5
:10070000CA0203188A2B0130CB0203188A2BCC02B1
:10071000031CA22B46088038CB020318932B013010
:10072000CC02031CA22BFA0A031DA22BF90A031DFB
:10073000A22BF80A031DA22BF70A0319AC2BF80C05
:10074000F90CFA0C4208CD004608CD06CD1FAA2BA5
:10075000F817B02BF813B02BF701F801F901FA01E3
:100760007A08C0007908BF007808BE007708BD008D
:1007700083107A08C4007908C3007808C20077089B
:10078000C1003808C8003708C7003608C600350859
:10079000C500CC2008008E30F7002508F702260897
:1007A000F9002708F800F917F7080319E22B0310DE
:1007B000F908031DDE2BF8080319E22BF90CF80CDD
:1007C000F70BD72BA61FE92BF809F909F80A03192B
:1007D000F90A08002B0BED2BF02B4030AC00F12B6D
:1007E000AC0101302A02AC072C088038AD00AE0104
:1007F0002D08AF00322008002908073A03190A2CF7
:100800000B3A03190F2C063A0319172C023A031955
:100810001D2C222C0130AA00AB00EA23272CAE01AC
:100820000130AF0032200230AA001220272C013004
:10083000AA000230AB00EA23272CAE011030AF0033
:100840003220272C0130AE002908AF0032200800EA
:100850000B08A6008B13831603178C170C140000CB
:10086000000083120313A61B8B1703185F2C0317BA
:100870000C087F390313A60003170D080313A70004
:1008800003170F080313A8002608A900FC23270854
:1008900003178D000313280803178F0003130B0899
:1008A000A9008B13831603178C170C14000000008B
:1008B00083120313A91B8B17A50B5F2C7E2C031728
:1008C0000C0D0E0D7F390313A60003170D0803133B
:1008D000A70003170F080313A8002608A900FC238C
:1008E000270803178D000313280803178F008D0AAC
:1008F00003198F0A03100313A50B282C08002808DE
:10090000F80127020318872C2708F700932CF7011A
:100910000830A900A70DF70D280877020318F70083
:10092000F80DA90B8A2C080078082508A700643068
:10093000A8007F247708A50078083030031DA72C75
:10094000A61CAE2CA619AE2C261A2030AA2CA61155
:1009500026122614F8077808A900FC232508A7000A
:100960000A30A8007F247708A50078083030031DDE
:10097000BF2CA619C32C261CC32C261A2030F8071E
:100980007808A900FC233030A5072508A900FC231E
:10099000080003081F398300FF30A40083161F14CA
:1009A0009F141F159F1107309C0083138312712819
:1009B0000030F80006389200FF3083169200831250
:1009C0002411240883168700831207110C30970026
:1009D000A410240883168700831287100C309D0012
:1009E00083161F109F141F159F151F1383121F17A7
:1009F0009F1783169F1783121F1495019B010030C8
:100A0000F8001F08C73978049F0000001F151F1940
:100A1000072D83161E088312A0001E08A1002108BE
:100A2000A6002008A500AF207A08A8007908A70032
:100A30007808A6007708A5007A08AC007908AB0012
:100A40007808AA007708A900B001AF01AE01AD0196
:100A5000B401C030B3007F30B2008830B100B801BB
:100A6000B701B601B501BC01BB017F30BA008630C9
:100A7000B9000D227A08A8007908A7007808A60016
:100A80007708A500CB237808A200A6012208A500BC
:100A9000AF207A08A8007908A7007808A600770890
:100AA000A5007A08AC007908AB007808AA0077089E
:100AB000A900B001AF01AE01AD01B401B3017F30B7
:100AC000B2008630B100B801B701B601B501BC0172
:100AD000BB014830BA008530B9000D227A08A80061
:100AE0007908A7007808A6007708A500CB23780826
:100AF000A3002208950022089B000130AA00AB0049
:100B0000EA23043003178D0000308F0003100530F6
:100B10000313A50028242208A5001B30A600942456
:100B20002030A900FC230130AA000230AB00EA23E8
:100B3000093003178D0000308F0003100C300313B1
:100B4000A50028242308A5001B30A60094242530E6
:100B5000A900FC232030A900FC233230AA00122077
:040B6000FF2C630003
:02400E007A3FF7
:00000001FF
;PIC16F877A
;CRC=81A4  CREATED="24-feb.-24 02:00"
